:020000040800F2
:100000001034012095020008735C0008FF4F0008BF
:10001000715C0008E5170008316600080000000068
:10002000000000000000000000000000D5010008F2
:10003000B11A00080000000031020008E96300085E
:10004000AF020008AF020008AF020008AF020008CC
:10005000AF020008AF020008AF020008AF020008BC
:10006000AF020008AF020008AF020008AF020008AC
:10007000AF020008AF020008AF020008AF0200089C
:10008000AF020008AF020008AF020008AF0200088C
:10009000AF020008AF020008AF020008AF0200087C
:1000A000AF020008AF020008AF020008AF0200086C
:1000B000AF020008AF020008AF020008AF0200085C
:1000C000AF020008AF020008AF020008AF0200084C
:1000D000AF020008AF020008AF020008AF0200083C
:1000E000AF020008AF020008AF020008AF0200082C
:1000F000AF020008AF020008AF020008AF0200081C
:10010000AF020008AF020008AF020008AF0200080B
:10011000AF020008AF020008DD640008AF0200086B
:10012000AF020008AF020008AF020008AF020008EB
:10013000AF020008AF020008AF020008AF020008DB
:10014000AF020008AF020008AF020008AF020008CB
:10015000AF020008AF020008AF020008AF020008BB
:10016000AF020008AF020008AF020008AF020008AB
:10017000AF020008AF020008AF0200080000000054
:10018000AF020008AF020008AF020008AF0200088B
:10019000AF020008AF020008AF020008AF0200087B
:1001A000C9550008AF020008F9180008AF0200089E
:1001B0005D1A0008DFF818D000F02EFB00F0DEF822
:1001C000004800473DDA0008AFF3008000F04BF92B
:1001D000103401202C4B19680868B0E8F04F80F308
:1001E0000988BFF36F8F4FF0000080F311887047CC
:1001F0000000000008480068006880F308884FF09D
:10020000000080F3148862B661B6BFF34F8FBFF36E
:100210006F8F00DF00BF00BF08ED00E0DFF80C00CB
:10022000016841F470010160704700BF88ED00E093
:10023000EFF30980BFF36F8F134B1A681EF0100F96
:1002400008BF20ED108A20E9F04F106009B44FF08C
:10025000500080F31188BFF34F8FBFF36F8F0FF003
:10026000BBF84FF0000080F3118809BC19680868DA
:10027000B0E8F04F1EF0100F08BFB0EC108A80F30A
:100280000988BFF36F8F704704010020EFF30580EA
:10029000704700000648804706480047FEE7FEE733
:1002A000FEE7FEE7FEE7FEE7FEE7FEE7FEE7FEE726
:1002B000C1640008B50100082DE9F05F0546002083
:1002C00092469B4688460646814640241BE02846C7
:1002D00041464746224600F0B0F853465A46C01AF7
:1002E000914110D311461846224600F097F82D1A76
:1002F00067EB01084F4622460120002100F08EF8EE
:1003000017EB00094E41201EA4F10104DFDC484632
:1003100031462A464346BDE8F09F40EA01039B0769
:1003200003D009E008C9121F08C0042AFAD203E06A
:1003300011F8013B00F8013B521EF9D27047D2B2CE
:1003400001E000F8012B491EFBD270470022F6E7BE
:1003500010B513460A4604461946FFF7F0FF20463B
:1003600010BD30B504460020034600E05B1C9342FC
:1003700003D2E05CCD5C401BF8D030BD70B5054CBD
:10038000054D03E0206820448047241DAC42F9D18C
:1003900070BD0000BC020708D00207082DE9F0413B
:1003A000074615460E4610200AF0B8FD04000AD094
:1003B0006760C4E9026500F051F8016821600460DB
:1003C0000020BDE8F0810120FBE700F0004230F0A2
:1003D00000400AD0C10D01F56071C0F3160042EA79
:1003E0000151C20840071143704700200146704781
:1003F00030B50B46014600202022012409E021FAF5
:1004000002F59D4205D303FA02F5491B04FA02F5F1
:100410002844151EA2F10102F1DC30BD202A04DBC4
:10042000203A00FA02F1002070479140C2F1200307
:1004300020FA03F3194390407047202A04DB203A46
:1004400021FA02F00021704721FA02F3D040C2F1F4
:100450002002914008431946704700000048704749
:10046000D40C002070472DE9F0410646FFF7F6FF57
:100470008046454613E016B1E068B0420ED12068D0
:100480002860D4E90101D8F80070884720460AF0B6
:1004900023FCD8F80000B842EBD100E025462C68D8
:1004A000002CE8D1BDE8F0812DE9FE4F804681EABD
:1004B0000300C00F0C46009021F0004123F00045DE
:1004C000B8EB0200A94105D24046214690461C46A1
:1004D0000B46024623F00040104347D0270DC7F3D8
:1004E0000A00C3F30A510290401A019040286BDAC7
:1004F000C3F3130040F4801B0098924620B1002300
:10050000D2EB030A63EB0B0B01985946C0F1400292
:100510005046FFF783FF06460D4650465946019A5E
:1005200000F08CF910EB08006141002487EA1152B9
:1005300084EAE7731A4340D0009A62B3019A012A11
:100540004FEA075215DC001B61EB02014FF000423D
:1005500002EA0752CDE90042001C41F58011324603
:100560002B4600F08DF903B0BDE8F08F40462146E0
:10057000F9E7001B61EB0201001C41F58013001834
:100580005B412018A2F5001747EB030140EAD57044
:10059000B6196D4111E06D084FEA360645EAC0759F
:1005A0004FEA0752001B61EB0201001C41F580116C
:1005B00049084FEA30000019514132462B4603B03A
:1005C000BDE8F04F00F04DB9009801224000002333
:1005D000D0EB020263EBE073009821464FEAE0742F
:1005E000B8EB000061EB0401E9E783F000435BE74F
:1005F00081F0004158E72DE9FE4F81EA030404F041
:10060000004421F0004100944FF0000B23F0004320
:1006100050EA01045ED052EA03045BD0C3F30A54EB
:10062000C1F30A552C44A4F2F3340194A0FB025404
:10063000C1F3130141F48011C3F3130343F4801396
:1006400001FB024400FB034E840A970A44EA8154EA
:1006500047EA8357A4FB076802958D0A05FB0785C7
:100660004FEA932C04FB0C542705029D4FEA0658D1
:1006700047EA1637B5EB08056EEB070C870E920EAE
:1006800047EA811742EA8312A7FB0201B6EB0B018E
:1006900064EB00042B0D43EA0C335E1844EB1C5052
:1006A000DA465146E7FB0201C5F313044FEA0B3368
:1006B00043EA14534FEA0432019C43EA0603A4F1CF
:1006C0000C040294009CCDE900B400F0D9F803B00A
:1006D000BDE8F08F00200146F9E72DE9F04D81EAF1
:1006E000030404F0004B21F0004514464FF0000ACB
:1006F00023F0004150EA050220D054EA01021DD047
:10070000C5F30A570246C5F31303C1F31300C1F33F
:100710000A5640F4801543F48013A7EB0608101B1B
:10072000D64608F2FD3873EB050002D308F1010844
:1007300001E092185B41B8F1000F03DA0020014696
:10074000BDE8F08D00204FF48011064684460EE08F
:10075000171B73EB050705D3121B63EB0503064359
:100760004CEA010C49084FEA300092185B4150EA0C
:100770000107EDD152EA030012D082EA040083EAB5
:100780000501084305D0101BAB4106D2012200230E
:1007900006E000224FF0004302E06FF00102531028
:1007A0001AEB06004CEB085110EB0A0041EB0B0171
:1007B000BDE8F04D00F055B8C1F30A52C1F3130182
:1007C00040F2FF3341F480119A4202DA00200146E0
:1007D000704740F233439A42A2F2334202DC524263
:1007E000FFF72BBEFFF71ABE30B5041E71F10004EF
:1007F00004DB4FF00044404264EB0101141E73F12E
:10080000000405DB1C464FF00043524263EB040337
:10081000994208BF904230BD064C074D06E0E068A3
:1008200040F0010394E8070098471034AC42F6D337
:10083000FFF7C4FC9C020708BC020708202A06DB5D
:10084000CB17203A41FA02F043EAE07306E041FA9E
:1008500002F3D040C2F1200291400843194670478C
:10086000704710B5141E73F1000408DA401C41F102
:10087000000192185B411A4301D120F0010010BD24
:100880002DE9F04D92469B4611B1B1FA81F202E09A
:10089000B0FA80F220329046FFF7C0FD04460F46C2
:1008A00040EA0A0041EA0B0153465A46084313D076
:1008B000114653EA010019D0C8F140025046FFF733
:1008C000BCFD05460E46504659464246FFF7A6FD7A
:1008D000084305D0012004E020463946BDE8F08DEC
:1008E0000020054346EAE0762C4337430A98630527
:1008F000E40AA0EB08000022FD0A44EA47540A304B
:1009000002D500200146E9E7010510196941DDE93A
:10091000084500196941BDE8F04DA2E770B58C1893
:1009200010F8015B15F0070301D110F8013B2A1103
:1009300006D110F8012B03E010F8016B01F8016BF0
:100940005B1EF9D12B0705D40023521E0DD401F8EC
:10095000013BFAE710F8013BCB1A921C03E013F8B5
:10096000015B01F8015B521EF9D5A142D8D30020EA
:1009700070BD00001CB509490024D1E90023CDE970
:1009800000408868064C00EB800101EBC00104EBDD
:100990008101C96D04F0E8FD1CBD0000D0000020FD
:1009A0002C1F00200A4B30B49B6803EB4304094B17
:1009B00003EB84039B68DD881C689B88DB1DDB08D8
:1009C000203A13FB02F205FB024230BC01F0CEB824
:1009D000D0000020F01F002008B50020009004483F
:1009E00029231522016800F5AA7002F090FA08BDCB
:1009F000801E00202DE9F04789460027154639461C
:100A000000E0491C12F8014B002CFAD1224EDFF80D
:100A10008C80012BB468326804EB440C08EB8C0426
:100A2000A468A488B2FBF4F203D0022B06D00446DB
:100A300008E0511A614300EB510002E0511A614392
:100A4000081A84B2601E47F6FF71884211D3012450
:100A50000FE049462046FFF7A5FFB0687F1C00EB7A
:100A6000400108EB8100BFB280686D1C8088204483
:100A700084B22A78002A0CD0B06800EB400108EB61
:100A8000810031688068808807FB101189B281423B
:100A9000DFD2BDE8F0870000D0000020F01F00206A
:100AA0002DE9FF4F824603208946A0EB420800252E
:100AB000144678E03E4E3F4FA9EB040BB0681FFA96
:100AC0008BF100EB400057F820200AEB0500039063
:100AD00080B200F093F8B0681FFA8BF100EB400091
:100AE00057F82020AAEB0500029080B200F086F8AB
:100AF000B068A9EB050B00EB40001FFA8BF157F82B
:100B000020200AEB0400019080B200F077F8B06872
:100B10001FFA8BF100EB400057F82020AAEB0400ED
:100B2000009080B200F06AF8B06809EB040B00EBAB
:100B300040001FFA8BF157F82020039880B200F094
:100B40005DF8B0681FFA8BF100EB400057F82020E9
:100B5000029880B200F052F8B06809EB050B00EB88
:100B600040001FFA8BF157F82020019880B200F066
:100B700045F8B0681FFA8BF100EB400057F82020D1
:100B8000009880B200F03AF8B8F1000F04DA08EBF0
:100B9000850000F1060805E0291B08EB810000F143
:100BA0000A08641E6D1CA54284D9BDE8FF8F0000B1
:100BB000D0000020F01F00207CB50E4B04460E4EE6
:100BC00098681B6800EB800503FB014105EBC0053D
:100BD00006EB850500EB400306F1C404ED6D54F807
:100BE00023300024CDE9004305EB8101012304F00B
:100BF000BBFC7CBDD00000202C1F0020084B10B592
:100C00001C6801FB0400996801EB810303EBC1013F
:100C1000044B03EB8101C96D41F8202010BD000099
:100C2000D00000202C1F00202DE9F0411C46164664
:100C30000D460746FFF7C0FF281981B232463846F5
:100C4000FFF7BAFF22462946384600F009F8B819DE
:100C500022462946BDE8F04180B200F001B800000C
:100C60007CB50F4C03460F4EA068246800EB80054E
:100C700005EBC00506EB850504FB0131ED6D00EBCE
:100C8000400305EB810106F1C405641E55F82330CD
:100C9000CDE900431346012204F066FC7CBD000050
:100CA000D00000202C1F00202DE9F74FDFF8B49072
:100CB0000F4690460321D9F80800A1EB4806DFF85B
:100CC000A8A000EB400182B0002415465AF821008C
:100CD00000F01AFA4FF6FF7B31E08DB1381981B27E
:100CE00002980BEA4502401B0090019280B2FFF788
:100CF00063FF381B81B2DDE9000280B2FFF75CFFC1
:100D00008CB1781B81B202980BEA4402001B009060
:100D1000019280B2FFF750FF781981B2DDE900023D
:100D200080B2FFF749FF002E03DA06EB8406B61DFA
:100D300004E0601B06EB80066D1E0A36641CAC42A4
:100D4000CBD9D9F8080000EB40015AF8210000F097
:100D5000DBF9029805B042463946BDE8F04FFFF78F
:100D60009FBE0000D0000020F01F00202DE9FC41B4
:100D70009846144B0746144D9868144600EB400003
:100D80000E4655F8200000F0BFF99868A5F1C4029E
:100D900000EB800101EBC00102EB81011A68C96D13
:100DA00002FB067301EB830100EB4003121B55F8B5
:100DB0002330CDE900234346224604F0D5FBBDE8AD
:100DC000FC810000D0000020F01F0020012000F076
:100DD00001B800002DE9F04F8FB0834646F6253666
:100DE00000F050F900F0FAF85A4D594828602846AA
:100DF00001F0A3FD00247D204FF002090394CDE90A
:100E000001094FF2244143F60450B1FBF0F04FF0DA
:100E1000010AC5E9020A01A9284601F0C7FE4E4DA4
:100E20004FF4F0704FF44871BBF1000F7ED0C5E96C
:100E300000104A48D5E9001C4FF00508C0E90048F9
:100E40000462C46100F1100EC0F80C9040F6FF7807
:100E500044628EE81201DFF808814631B8FBF6F8EB
:100E6000C0F82880DFF8FC800127B8FBF6F8C0F84E
:100E70002C804FF2244801FB08F1B1FBF6F1C0E9E8
:100E80000C171022D102C0E910C11021C0E91214C0
:100E90004902016549104165491081654910C165E4
:100EA00049100166491041660F23C0E90E32014620
:100EB000284801F017FC232704970A20CDE90840B1
:100EC0000597069704A90797224801F0CEFB214E0B
:100ED000A83EC6F814A0F761286800F12302014675
:100EE000726245303166F06268687066A6F1E800AB
:100EF000082101604FF4C071016107218462C16162
:100F000003F0ECFA86F8344086F8354086F836402F
:100F10001548346130601149304602F0D9FD304641
:100F200002F092FE0B4802F003F800E00DE000F042
:100F30005DFA09480C3000F0D9F85946002004F059
:100F40009BFE0FB00020BDE8F08FC5E9000170E7FF
:100F5000006C0140D41F0020D0000020801E002023
:100F600048E80100C86C20000068014010B5044644
:100F70008EB01848002300930268CDE90123406831
:100F80000991CDE90303FF21CDE905138DF8303038
:100F90008DF831308DF832304FF4C061CDE90A2040
:100FA000079107210891224669460B4802F0BDFDD2
:100FB000094904EB4400C43101EB80024FF0FF33D8
:100FC0005360044B0C3393604FF07F4241F8202074
:100FD0000EB010BDD00000202C1F0020284908B5FD
:100FE000086840F080600860086800F08060009049
:100FF00023482038026842F080620260026822F0D2
:10100000806202601E4A143A136843F400031360BE
:10101000126802F400020092194A343A136843F449
:1010200000031360136823F4000313600A6842F09E
:1010300000620A60096801F000610091016841F0F6
:1010400000610160016821F000610160002203215C
:10105000582002F017FF582002F007FF002203215A
:101060005A2002F00FFF5A2002F0FFFE0022032157
:101070005C2002F007FFBDE808405C2002F0F5BEEE
:1010800044380240144810B5026886B0002142F08E
:10109000800202600068114C00F080000590802002
:1010A00000901120CDE901010320039069462046FC
:1010B00002F0DEF800228021204602F0CFF9142051
:1010C00001F084FF01228021204602F0C7F90A20A6
:1010D00001F07CFF06B010BD30380240001C024019
:1010E0000149886070470000D00000200449054A8B
:1010F000896801EB410102EB8101886070470000C3
:10110000D0000020F01F00200349044A896801EB49
:10111000410142F821007047D0000020F01F00205C
:101120000349044A31F8101052F8200002F08AB93D
:10113000460501089000002030B51C4A044687B0DF
:101140001368002043F0010313601268184D02F089
:1011500001020592174B0222E1B1012918D135F89D
:101160001410CDE902021448CDE9001053F8240010
:10117000694602F07DF8AD1C002215F814000F211D
:1011800040B202F07FFE15F8140040B202F06DFE8E
:1011900007B030BD35F81410CDE90010CDE90202DA
:1011A00053F82400694602F063F8F1E73038024052
:1011B000460501089000002000001110084910B5F4
:1011C00006480860084602F0A4FF08B1012010BDDF
:1011D0000021034800F05EF8002010BD001000A0C0
:1011E000D81C002000B591B04FF480700690EB2021
:1011F00000904FF4406007904FF40050039000209F
:101200004FF04071CDE908010A2105910B900C9037
:101210000D900F900EAA6946034802F0E3FF0028E4
:1012200000D0012011B000BDD81C002010B5184C12
:1012300016482060204602F06CFFD0B900212046FD
:1012400000F05CF801206060A0601020E060000504
:1012500090FAA0F0B0FA80F0401E20614FF4806058
:1012600060610020A061E0612062204602F066FF1C
:1012700008B1012010BD064805F023F820B9044844
:1012800004F0D9FF0028F5D0042010BD001000A004
:10129000D81C002010B55B2002F0D6FD4021144878
:1012A00001F020FF134C4FF48061204601F01AFF3B
:1012B000A115204601F016FF6115204601F012FF2E
:1012C0008021204601F00EFF4021204601F00AFF58
:1012D0000948016841F002010160016821F0020142
:1012E000016005482030016821F00201016010BD55
:1012F00000040240001402401838024070B52C4827
:1013000086B00024016841F002010160006800F02D
:101310000200059026482038016841F00201016072
:10132000016821F00201016021480838016841F09C
:1013300002010160016801F002010591016841F0BC
:101340002001016000680A2500F02000059040207F
:10135000009002200190012002900320CDE90305B6
:101360006946144801F084FF4FF480600294124EE5
:101370000090092469463046049401F079FF4FF447
:101380004070009069460495304601F071FFC0201E
:10139000009069460494304601F06AFF00220F2154
:1013A0005B2002F06FFD5B2002F05FFD06B070BDB8
:1013B000383802400004024000140240094910B5C8
:1013C00007480860084603F089FC074C28B900204C
:1013D00060700146034800F08BF8607810BD000093
:1013E000400100A0E41D0020B400002070B51B489F
:1013F00019490423016000F13401022207248B60A3
:10140000C1E90024C1E903424A618A6100244460C1
:1014100020218460C0E90331402141614FF4C07153
:10142000C0E90614910201624900C0E9091421468D
:1014300000F072F809490948343103F05DFC084DA9
:1014400010B10120287000E02C7040F2695000F0CB
:1014500009F8287870BD0000400100A0E41D0020BC
:10146000B40000202DE9F843204C00250126102768
:101470000095C4E90067C4E9026581464FF6FF782C
:1014800021464246A1F1500003F0B0FC012001F0DA
:101490009DFD0220C4E90007C4E9026521464246D9
:1014A000A1F1500003F0A2FC0320C4E900070820CA
:1014B000C4E9020521464246A1F1500003F096FC22
:1014C0004FF40C700090C4E902600421C4E90017D5
:1014D00021464246A1F1500003F088FC4946A4F1A0
:1014E0005000BDE8F84303F06FBC0000341E00203C
:1014F00010B500280AD0382002F0A6FC054904489F
:101500000860BDE81040084600F06BBE10BD00004A
:1015100010640240841D002030B587B005007DD0E6
:1015200055480024016841F00101016000685249FA
:1015300000F0010008390590086840F48000086058
:10154000086800F480000590086840F00400086016
:10155000086800F004000590086840F00800086082
:10156000086800F008000590086840F01000086066
:10157000086800F010000590086840F0200008603E
:10158000086800F020000590086840F040000860FE
:10159000086800F040000590086840F0800008608E
:1015A000086800F080000590086840F480700860CA
:1015B0000868012100F4807005900220CDE9010146
:1015C00003900C200091049069462C4801F050FED5
:1015D0004CF2037000906946294801F049FE4FF62D
:1015E000837000906946274801F042FE4FF63F00A5
:1015F00000906946244801F03BFE48F23310009009
:101600006946224801F034FE4FF60C70009069469E
:101610001F4801F02DFE40F2FF6000E02AE000903C
:1016200069461C4801F024FE1B498020C1E90140A5
:101630008000C86040000861800048618000C1E906
:101640000604C000C1E908040320C1E90A041348E4
:101650000C630860296308468D6300F0C2FD0E48E4
:1016600000F0F0FD00220521382002F00BFC3820AC
:1016700002F0FBFB07B030BD3838024000080240E2
:10168000000C02400010024000140240001802400A
:10169000001C024000200240241D00201064024073
:1016A0002DE9FE4F0746354E002000907068016915
:1016B000307888473870C0B300240DF1040902ADBA
:1016C00006F1080A06F1100B52E000BF706805EB46
:1016D0004402C846436909EB440130789847707862
:1016E000010707D538F8142035F8143028F81430DD
:1016F00025F81420810706D538F81420A2F21F32ED
:10170000524228F81420400706D535F81400A0F2FC
:10171000DF10404225F8140038F814005AF824204D
:101720005146904202D9821A01E024E0121A1FFAAF
:1017300082F835F814205BF824C05B46624502D974
:10174000A2EB0C0C01E0ACEB020C1FFA8CFCC444C5
:10175000BCF1050F03D941F8240043F8242007EB1E
:1017600044003AF8241041803BF82410C180641CE6
:101770003878A042AAD80098BDE8FE8FB8000020B3
:101780002DE9F041154D164C88460746296800267C
:1017900020788847696854208847C0B211280BD048
:1017A0006968702088477021C0B22170112805D067
:1017B00003263046BDE8F08154202070656047451F
:1017C00001D2012000E00C206070A96820788847D1
:1017D0006068C16820788847EBE70000600000205F
:1017E000B8000020FEE70000144810B5016821F0A1
:1017F0000101016009F08BFD11490968114BC1F32A
:101800000221114A012404290BD010490C600C68F4
:10181000002CFCD10D4908390B60096891420AD0AF
:10182000FEE70B498C608C68002CFCD10B600968CA
:10183000914200D0FEE709F0D5FD10BD002000E088
:10184000002004E0C2A507F4CDB5E8B5084C025865
:1018500000300240214A10B4136823F001031360E2
:101860001F4A1368C3F30B1C0123ACF54064243CEE
:1018700007D01268C2F30B12A2F5406CBCF1270C22
:1018800022D1184A1268FAB9174AD2F800C0CCF32C
:101890000B0CBCF58A6F07D01268C2F30B02A2F5DD
:1018A000806CBCF1830C0FD1104A13601368002BBD
:1018B000FCD10F4A10601068884202D010BC002092
:1018C000704710BC012070470A4A93609368002B50
:1018D000FCD1106010688842F3D0EFE7002000E0F0
:1018E00000ED00E0002004E00010005C084C02580D
:1018F000004C025800300240014800F0ADBA000030
:10190000181A0020F0B50468059E656C46EA03438A
:1019100005F040451D4365640368DA634268B2F52B
:10192000403F02D00068C160F0BD01F47F4201F485
:101930007F0C866801F07F4301F47F0701F47F4547
:10194000CCB242EA0C02BEB1012E16D001F47F02E5
:10195000D20CC1F3C401022E11D0032E14D0190FE2
:101960003A0D2D0B23092C0144EA022242EA0132EE
:101970001A4300688263F0BD1A432243F9E7AB0AB9
:101980005B0143EAC22206E0DB0FEC0A640144EA91
:10199000822242EAC3320A43EBE7000001681823BF
:1019A000CAB2103AB2FBF3F2054B6FF30901032AF6
:1019B0009B5CC36500D9091D81650846704700001E
:1019C000BA3A010810B5014600208B698A6A4FF0C7
:1019D000C07453B1B3F5005F15D072B1012A0CD0B9
:1019E000022A0AD0032A09D104E01AB1012A06D03A
:1019F000022A03D1C96AC90100D5012010BDC96AF4
:101A0000A142FAD010BD002AF7D0012AF2D0022A52
:101A1000F3D0032AF3D010BD10B542EA8111029C25
:101A200041EA032141EA0441C16610BD1CB5012809
:101A300008D8487800900B7815220021064801F05C
:101A400066FA1CBD0A5CCDE900210346392200215B
:101A5000014801F065F91CBD581A0020014801F049
:101A600032B80000581A00202DE9F0479846164673
:101A700089460446DDF820A001F0F6FC05464FF447
:101A80007A7707E001F0F0FC401BB84202D903204E
:101A9000BDE8F0872068406FC007F3D046EA89119F
:101AA00041EA082141EA0A402168C8660020EFE7C0
:101AB0007047000010B54FF0FF30FEF75BFF1D4888
:101AC000FFF722FB1C48FFF711FB4FF4FA740323C6
:101AD0001AA264212046FEF78DFF03231BA2782162
:101AE0002046FEF787FF6FF4FE00FFF70DFB2D2366
:101AF0007822FF2140F24920FFF738F91748FFF715
:101B000003FB1748FFF7F2FA032316A24FF487717D
:101B10004FF41670FEF76EFF4FF4EB72052113467B
:101B20000846FFF781F8BDE810404FF07F40FFF70F
:101B3000EBBA0000800000FFE400002046697273E9
:101B400074202047756573733A0000005365636F16
:101B50006E642047756573733A0000000000FFFF54
:101B6000DC000020434C4541520000002DE9F74FB6
:101B7000DFF8A4A00026DAF8080000EB40012748AF
:101B800000EB810080688588C788E81D834620F0C7
:101B90000700401B00F0FF093AE000BF4FEADB01FD
:101BA0000298012901FB06000BD002290BD0017815
:101BB00042780904807841EA022141EA00080024C1
:101BC0001FE0007801E0008840BA8046F7E7291B53
:101BD00049440120491E884010EA080FDAF808003D
:101BE00000EB40010D4802D050F8212002E000EB4C
:101BF0008100426800980199204480B2FEF7FEFF00
:101C0000641CAC42E3D30198401C80B2761C019066
:101C1000BE42C3D3BDE8FE8FD0000020F01F0020DD
:101C20004FF4347240F8212000EB81016FF07042D4
:101C30008A6000210161416181610846704730B5C9
:101C4000D1E901231A43D1E903352B431A434B69E8
:101C50000C681A438B691A43D1E90735012C496A8C
:101C6000046807D01A432A436FF30E040A43224341
:101C700002600AE024F4F8442B4321430B434168FB
:101C800003606FF30E010A434260002030BD4269D9
:101C900042EA4101416100207047F8B5144605460B
:101CA000D1E9000210438A686FF01F03C96803EB93
:101CB000421242EA412108430090286101F0D4FB1E
:101CC000064609E0601C07D024B101F0CDFB801B63
:101CD000A04201D90320F8BDA8698006F2D40020F3
:101CE000F8BD0000F0B56FF00F05D1E9003405EB49
:101CF00004145B1E23432E018C682F0306EB04247F
:101D000023434FEA054C0C8A8E8ACD68097E4FF03A
:101D10007F4E07EB04440CEB06560EEB0161012AE3
:101D20000CD082683F1107EB05352B432343334327
:101D300002F070420B43134383600FE08768084A48
:101D400017402A03A2F580523243C5683A43234321
:101D500005F070450B432B438260C3600020F0BD4B
:101D6000FF0F0FFF10B5040002D0607910B106E03C
:101D7000012010BD00202071204600F005F8012050
:101D80006071002010BD000008B500680649884257
:101D900008D10648016841F480510160006800F4F0
:101DA0008050009008BD00000030024030380240F2
:101DB0007047000070B590F83820012A24D0012621
:101DC00080F83860022280F8392000EB0112148C70
:101DD000D369183243EA04451E4C0A2B16D0092B4E
:101DE00014D0137B45EA03630029016813D0CD6941
:101DF000A5431D43CD6103681168196151680A2923
:101E00001BD0092919D01DE0022070BDD36803F052
:101E10007F432B43E8E74D6AA5431D434D620368AA
:101E20001168996151680A2901D009290AD1D1683C
:101E3000026821F07F41916204E0D168026821F0DC
:101E40007F41116280F83960002180F8381008461F
:101E500070BD00000F0003FF2DE9F0470446006845
:101E600046680568F1074FF004084FF000074FF08F
:101E7000010914D0E90512D5016821F480710160CF
:101E8000E06B40F00100E0632168C1F8089084F83D
:101E9000398084F83870616909B120468847B006F6
:101EA00015D5A80413D52068016821F400510160FC
:101EB000216820208860E06B40F00200E06384F835
:101EC000398084F83870616909B120468847300745
:101ED00015D5280513D52068016821F4006101603B
:101EE000216808208860E06B40F00400E06384F81B
:101EF000398084F83870616909B1204688477007D5
:101F00000CD568050AD52068016821F4806101605C
:101F10002168C1F80880204600F05AF8B00713D5B0
:101F2000A80511D52068016821F4007101602168BD
:101F300002208860E06BE06384F8399084F83870A0
:101F4000216909B120468847F00612D5E80410D56A
:101F50002068016821F480510160216810208860A8
:101F6000E06BE06384F8399084F838702046FFF71E
:101F70001FFFBDE8F08770B5040004D094F8390065
:101F8000002510B106E0012070BD84F838502046CD
:101F900000F020F8022084F83900206801686268A7
:101FA00021F44031114301602068416BA26821F0A7
:101FB0000701114341632068016CE2686FF30D0172
:101FC00011430164E563012084F83900002070BDED
:101FD0007047000008B500680B49884212D10B48D1
:101FE000016841F4000101600068002200F4000073
:101FF000009005215A2001F045FFBDE808405A2015
:1020000001F033BF08BD000000B00240303802408C
:102010002DE9F84300260446009600680D46006846
:102020004FF00407C0074FF0030825D001F01CFA59
:1020300081461DE04068009010F0210F0FD00098FD
:10204000800603D5E06B40F00200E0630098C00713
:1020500003D0E06B40F00100E063212034E0681C15
:1020600006D001F001FAA0EB0900A8424DD8A5B3B3
:10207000206841688907DDD52068C169406A01F0A0
:10208000200100F02000084335D001F0EDF9814631
:102090002DE04068009010F0290F1FD00098000735
:1020A00003D5E06B40F00400E0630098800603D5A0
:1020B000E06B40F00200E0630098C00703D0E06BE3
:1020C00040F00100E06329202168886084F83970BD
:1020D00084F838600120BDE8F88316E0681C06D05B
:1020E00001F0C2F9A0EB0900A8420ED86DB120683A
:1020F0004168C906CDD5216812208860012084F886
:10210000390084F838600020E5E754F83C0F40F0CF
:10211000200044F8040984F8018026700320DAE7DF
:1021200038B50446049894F83850012D10D0012594
:1021300084F83850022584F8395000902046FFF783
:10214000E1FB2068016841F001010160002038BD19
:10215000022038BD2DE9F0410446876D01F084F975
:10216000064694F835000025022806D080206065D8
:1021700084F834500120BDE8F0812068016821F026
:10218000160101602068416921F080014161206CE5
:1021900008B9A06C20B12068016821F00801016035
:1021A0002068016821F0010101600BE001F05CF999
:1021B000801B052806D92020606504F8345F0320C1
:1021C0006070D8E720680068C007EFD194F85C1011
:1021D0003F208840B86004F8345F01206070002020
:1021E000C9E770B504002BD094F83500022826D03A
:1021F0002068016821F00101016020680025056068
:1022000020684560206885602068C5602068056199
:102210002168212048612046FFF7C0FBE563256463
:102220006564A564E564256594F85C203F219140D0
:102230008160656584F8355084F83450002070BDA5
:10224000012070BD2DE9F041044601F00DF906466C
:102250005CB1002584F83450022084F835002068F1
:10226000016821F0010101600DE00120BDE8F0816D
:1022700001F0FAF8801B052805D9202060650320AD
:1022800084F83500F2E720680068C007F0D12268C2
:10229000116820480140D4E901031843D4E903360A
:1022A0003343184363691843A3691843E369184328
:1022B000236A18430843616A042903D1D4E90B1344
:1022C00019430843106020684069666A20F00701DE
:1022D00030460E43012704280CD1A06A0643E06A69
:1022E00040B12046FFF76EFB20B14020606584F8C6
:1022F0003570BAE7206846612046FFF74FFB94F837
:102300005C203F2191408160656584F83570002034
:10231000ACE700003F8010F030B5027C012A7DD090
:10232000012202740268536B43F001035363026895
:10233000D2F8003423F00103C2F800340268D2F866
:10234000003443F00103C2F800340268D36823F07C
:102350000303D3600268D3680C682343D360026828
:10236000536923F00703536103685A69CC69224318
:10237000D1E905542C4322435A610268136923F0C2
:102380000F031361026813694C68234313610268E9
:10239000D2F8003423F00E03C2F800340268D2F8F9
:1023A00000344C6843EA4403C2F800340268536EB8
:1023B0006FF30F0353660268536E8C6823435366B2
:1023C0000268D2F8003423F0F003C2F80034D1E9F7
:1023D00003231A43D1E9084323431A430368D3F87C
:1023E00000442243C3F800240268936E23F00103E3
:1023F00093660268936E896A0B4393660168D1F80D
:10240000082442F00102C1F808240168D1F8082428
:1024100042F00202C1F80824002100E002E0017449
:10242000084630BD022030BD10B5027C012A2FD0F5
:10243000012202740268936E164C23409366D1E920
:1024400000231A43D1E9023423431A430B691A4388
:102450004B691A438B691A43CB691A430B6A1A43B7
:102460004B6A1A438B6A1A43CB6A1A4303689C6E01
:1024700022439A660268936E23F002039366026811
:10248000936E096B0B43936600210174084610BDDF
:10249000022010BDFF80F0FE30B5027C012A5DD025
:1024A0000122027403680022C3F8C4200368C3F841
:1024B000C8208161CB0706D0036853F8C44F4FF69C
:1024C000FF752C431C608B0705D5036853F8C44F78
:1024D00044F4F8141C604B0705D5036853F8C84F43
:1024E00044F001041C600B0705D5036853F8C84F7E
:1024F00044F002041C60CB0605D5036853F8C84FAE
:1025000044F00C041C608B0605D5036853F8C84FD3
:1025100044F010041C604B0605D5036853F8C84FFF
:1025200044F020041C600B0605D5036853F8C84F1F
:1025300044F040041C60CB0505D5036853F8C84F30
:1025400044F080041C60890505D5016851F8C83F36
:1025500043F4F8530B600274002030BD022030BDFC
:10256000027C012A0ED0012202740268D36A23F091
:102570001F03D3620268D36A0B43D3620021017444
:10258000084670470220704710B5027C012A6AD0C5
:10259000012202740268936823F47F439360026807
:1025A00093680C6843EA042393600268936F9BB2BC
:1025B00093670268936F8C8843EA044393670268C9
:1025C000936F6FF30F0393670268936F8C682343D5
:1025D00093670268D36F6FF30F03D3670268D36FFB
:1025E000CC682343D367026852F8803F6FF30F0330
:1025F0001360026852F8803F0C692343136002683D
:1026000052F8843F6FF30F031360026852F8843F5F
:102610004C6923431360026852F8843F23F08073AF
:102620001360026852F8843F8C6923431360026888
:1026300052F8883F6FF30F031360026852F8883F27
:10264000CC6923431360026852F88C3F6FF30F0389
:102650001360026852F88C3F096A0B431360002133
:102660000174084610BD022010BD30B5027C012A5D
:1026700036D001220274D1E90023934200D91A46D0
:10268000036853F8984F04F0FC241C60036853F867
:10269000984F42EA024214431C60026852F89C3F81
:1026A00003F400431360036853F89C2F0C690D7A00
:1026B00022438C89240444EA056422431A60026898
:1026C00052F8A43F23F47F431360026852F8A43FFA
:1026D000496943EA0121116000210174084630BDB7
:1026E000022030BD30B5027C012A6AD0012202747A
:1026F0000268536B23F0010353630268D2F800347D
:1027000023F00103C2F800340268936B23F0030343
:1027100093630268936BCC68234393630268D36B23
:102720006FF30D03D3630268D36B0C692343D36348
:102730000268136C6FF30C0313640268136C4C692A
:10274000234313640268536C6FF30C0353640268F1
:10275000536C8C69234353640268D36823F00303EA
:10276000D3600268D3680C682343D360026853695E
:1027700023F00703536103685A694C6A2243D1E985
:1027800007542C4322435A610268136923F00F0354
:102790001361026813694C68234313610268D2F81D
:1027A000003423F00E03C2F800340268D2F800347B
:1027B0004C6843EA4403C2F800344A68032A02D052
:1027C0000BE0022030BD0268136923F480731361AB
:1027D000026813698C68234313610268936C6FF37A
:1027E0000B0393640268936C8C6A234393640268BE
:1027F000D36C6FF30B03D3640268D36CCC6A2343AE
:10280000D3640268136D6FF30E0313650268136DD2
:102810000C6B234313650268536D6FF30903536513
:102820000268536D4C6B234353650268936D6FF3DD
:10283000090393650268936D8C6B2343936502686B
:10284000D36D6FF30903D3650268D36DCC6B23435B
:10285000D3650268136E6FF30D0313660268136E7F
:102860000C6C234313660268936B23F40043936359
:102870000268936B4C6C234393630268936923F45F
:102880007F03936102689369B1F8484043EA0443C7
:1028900093610268936923F0FF039361026893696F
:1028A000CC6C234393610268936B23F400539363CE
:1028B0000268936B0C6D234393630268936B23F45C
:1028C000805393630268936B4C6D23439363026858
:1028D000936B23F4006393630268936B8C6D2343C3
:1028E00093630268936B23F4806393630268936B32
:1028F000CC6D234393630268936B23F4007393635B
:102900000268936B0C6E234393630268936B23F40A
:10291000807393630268936B4C6E234393630268E6
:10292000936B23F4804393630268936B896E0B432C
:10293000936300210174084630BD38B504003FD0D0
:102940000320607420680025D0F8041421F00801E9
:10295000C0F804142068D0F8041401F008010091B4
:10296000416821F0010141602068416801F00101E6
:102970000091D0F8A01021F00601C0F8A010206846
:10298000D0F8301421F00101C0F830142068D0F8DC
:10299000301401F001010091D0F8301421F0807161
:1029A000C0F830142068D0F8300400F08070009037
:1029B000204600F017FA656165742574002038BD63
:1029C000012038BD2DE9F14FDFF8D8C0364B364F26
:1029D000DCF804006146401C334A9C3BDFF8C8B079
:1029E000CCF804001D1D314E243FDFF8C4808968F7
:1029F000304C4FF4F17E02F104094FF0010AABF1C3
:102A0000880B042826DAD4F804C02CF0080CC4F88B
:102A100004C000EBC00C0CEB001C01EB0C111160AE
:102A2000C821032800D1E821891C4EEA0141196020
:102A3000214929603E60C9F80080CBF800A002F06F
:102A400081FD606840F0080060600098BDE8F84FC4
:102A500000F01EBA606820F008006060116016483F
:102A6000401E1860154828603E60C9F80080CBF809
:102A700000A0002002F066FD606840F00800606081
:102A8000002006F0F9FA0748002101700C480068A0
:102A9000002805D00168896901B0BDE8F04F0847FA
:102AA000BDE8F88F04000020AC6801400300CA00B4
:102AB0009301800600700140E301CA00E301CB00EE
:102AC000AC0C0020704710B504460068D0F80C1418
:102AD000C90709D0D0F80814C90705D00121C0F8EA
:102AE0001014204600F046FA2068D0F80C1489072C
:102AF00009D5D0F80814890705D50221C0F81014AB
:102B00002046FFF75FFFA06900284DD0206850F8ED
:102B1000BC2F816811404268C06810400A04120C42
:102B200003D0626942F00102626111F4F81F03D020
:102B3000616941F002016161C10703D0616941F03F
:102B400004016161810703D5616941F00801616198
:102B500010F00C0F03D0616941F010016161C106F2
:102B600003D5616941F020016161810603D5616986
:102B700041F040016161410603D5616941F0800186
:102B80006161010603D5616941F48071616110F4EE
:102B9000F85F03D0606940F40070606160690028EC
:102BA00002D02046FFF78EFF10BD00002DE9F8434C
:102BB0000D46040002D0607C18B105E00120BDE89C
:102BC000F883204600F028F90320607420684FF055
:102BD0000008D0F8301441F08071C0F8301420683B
:102BE000D0F8300400F08070009000F03DFC064604
:102BF0004FF47A7705E000BF00F036FC801BB84246
:102C00002FD82068D0F80C04C004F5D52068D0F87F
:102C10003014414A1140C0F830142068D0F8301404
:102C20002A682B8941EA82016A68D20242EA034299
:102C30001143C0F830142068D0F8301441F001017D
:102C4000C0F830142068D0F8300400F00100009083
:102C500000F00AFC064606E000F006FC801BB842C5
:102C600001D90320ABE72068D0F80C04C005F3D5E8
:102C7000206850F8A01F41F006010160206850F85C
:102C8000941F21F003010160206850F8941F6268CE
:102C9000114341F001010160206850F8A41F21F0A8
:102CA00003010160206850F8A41FE268114301602D
:102CB0002068816821F0FF01816020688168A26836
:102CC00011438160686800B9012014494FF4FA5239
:102CD0004843297A01F00301884029685143B0FB39
:102CE000F1F02168D1F8182422F03F02C1F818242D
:102CF0002168D1F818240243C1F818242168C1F8CA
:102D0000C4802168C1F8C880C4F81880C4F8148051
:102D100001206074002052E70386FCFF00093D009B
:102D20002DE9FF4F81B00446DDE90EA6007C1D466B
:102D30009346012809D00120207400F095FB074636
:102D40004FF000084FF47A790DE0022005B0BDE89D
:102D5000F08F00BF00F088FBC01B484503D984F802
:102D600010800320F2E72068406FC007F2D0504681
:102D7000032D02D22B46002108E00323002108275F
:102D8000725C07EBC107BA401043491C9942F6D365
:102D900021680867EA1A13E0042A01D2134600E00A
:102DA00004230021084606E0375C4FEAC00C07FA0E
:102DB0000CF73943401C9842F6D320680167D21AB9
:102DC0001E44002AE8D16D1CC5F307200090EBB229
:102DD0005A4620680299FEF71FFE84F810800020F2
:102DE000B4E7000010B50068084988420DD10848D2
:102DF000016821F0006101600421064800F072F9C9
:102E0000BDE810405C2001F01FB810BD006C01400F
:102E1000443802400024024010B586B00446142114
:102E20006846FDF793FA17492068884227D116486B
:102E30000021026842F000620260006800F0006059
:102E4000059011481438026842F40072026000686C
:102E500000F400700590042000900220CDE90101EB
:102E60000D20CDE903106946084800F001FA002260
:102E700005215C2001F006F85C2000F0F6FF06B0AA
:102E800010BD0000006C01404438024000240240A4
:102E9000017C01290CD0012101740168D1F80424BE
:102EA00042F00402C1F8042400210174084670476E
:102EB00002207047027C012A0ED0012202740268AF
:102EC000136B23F0030313630268136B0B43136349
:102ED000002101740846704702207047027C012AD5
:102EE00013D0012202740268D2F81C3423F0C063AC
:102EF000C2F81C340268D2F81C3443EA4161C2F8BB
:102F00001C1400210174084670470220704738B530
:102F100004460498257C012D08D0012525740090D5
:102F20002046FEF7A1FD0021217438BD022038BDE6
:102F300008B5017C01291BD0012101740168002220
:102F40004B6843F001034B6001684B6803F00103D9
:102F50000093D1F8043443F00803C1F80434016845
:102F6000D1F8041401F0080100910274002008BD9A
:102F7000022008BD70B50546002006F04BF8114C44
:102F8000206810F8661F491C017004F021F82068C1
:102F90000D4C617880F84A10617809B1217821B12F
:102FA000BDE87040002006F067B808B105F046FDA6
:102FB0000020606002F0C6FA2846FFF769FF012092
:102FC000207070BDAC0C00200400002070B50446D9
:102FD00000F04AFA0546601C02D004480078044418
:102FE00000F042FA401BA042FAD370BDF40000206A
:102FF000F0B587B014216846FDF7A8F9304801689C
:1030000000295AD1012101602E480024016841F0B5
:10301000010101600068022500F0010005904FF6F3
:103020008370CDE9000502AA03260C2782E8D000B0
:103030006946254800F01CF948F23310CDE9000537
:1030400002AA694682E8D000204800F011F94CF24B
:103050000370CDE9000502AA694682E8D0001C4849
:1030600000F006F940F2FF60CDE9000502AA6946CA
:1030700082E8D000174800F0FBF84FF63F00CDE99A
:10308000000502AA694682E8D000134800F0F0F873
:103090004FF47F40CDE9000502AA694682E8D000DE
:1030A0000E4800F0E5F80D20CDE9000502AA6946BA
:1030B00082E8D0000A4800F0DBF807B0F0BD00005D
:1030C000580000203838024000100240001802402A
:1030D000000C02400020024000140240001C02408C
:1030E000000802402DE9F04F0022DFF854B101261C
:1030F0004FF00F0906FA02F401EA0403A3427DD15E
:1031000022F003075F44D7F808C895074FEA1578FF
:1031100009FA08FA0AEA0C05DFF828C1604502D16D
:103120004FF0000C40E0DFF820C1604502D14FF0C5
:10313000010C39E0DFF814C1604502D14FF0020CF8
:1031400032E0DFF80CC1604502D14FF0030C2BE0F8
:10315000DFF800C1604502D14FF0040C24E0DFF835
:10316000F8C0604502D14FF0050C1DE0DFF8ECC05F
:10317000604502D14FF0060C16E0DFF8E4C0604570
:1031800002D14FF0070C0FE0DFF8D8C0604502D144
:103190004FF0080C08E0DFF8D0C0604502D14FF0D6
:1031A000090C01E04FF00A0C0CFA08FCAC4522D1E6
:1031B0002E4DD5F800C02CEA030CC5F800C005F16F
:1031C000040CDCF800509D43CCF800500CF10405D1
:1031D000D5F800C02CEA030CC5F800C02D1DD5F8A9
:1031E00000C02CEA030CC5F800C0D7F8085825EA3F
:1031F0000A05C7F808580568570000E01AE00323DD
:10320000BB409D430560D50800EB8505D5F820C07F
:1032100057074FEAD76809FA08F72CEA070CC5F8F0
:1032200020C0C5689D43C5604568A5434560846866
:103230009C438460521C102AFFF45CAFBDE8F08F01
:10324000003001400000024000040240000802403B
:10325000000C02400010024000140240001802401E
:10326000001C02400020024000240240003C0140BB
:103270002DE9F84F00224FF0010803254FF00F0E03
:103280000B6808FA02F42340A3426ED14E68012E67
:1032900005D0022E03D0112E01D0122E12D1866835
:1032A0004FEA420C05FA0CF7BE43CF6807FA0CF759
:1032B000374387604668A6430C79C4F300149440F2
:1032C00034434460C668570005FA07FC8C6826EA58
:1032D0000C06BC403443C4604C68022C01D0122C54
:1032E00013D1D40800EB8404A346D4F820905407EB
:1032F0004FEAD46A0EFA0AF629EA06090E6906FAB6
:103300000AF646EA0906CBF8206004680E7924EA3A
:103310000C0406F00306BE40264306604C68E40039
:103320006FD53B4C266846F480462660246822F020
:10333000030604F480440094364C3444A446D4F884
:1033400008489607360F0EFA06F7BC43324FB842CC
:1033500001D100272EE0314FB84201D1012729E0E9
:103360002F4FB84202D1022724E04AE02D4FB84245
:1033700001D103271EE02C4FB84201D1042719E0E8
:103380002A4FB84201D1052714E0294FB84201D194
:1033900006270FE0274FB84201D107270AE0264F42
:1033A000B84201D1082705E0244FB84201D10927CE
:1033B00000E00A27B7402743CCF80878204E34684D
:1033C0004F689C43FF0300D51C4334601C4E361DE0
:1033D00034684F689C43BF0300D51C433460184ECB
:1033E000083634684F689C43FF0200D51C433460A4
:1033F000134E0C3634684F689C43BF0200D51C4303
:103400003460521C102AFFF43BAFBDE8F88F000077
:1034100044380240003001400000024000040240F5
:1034200000080240000C024000100240001402405C
:1034300000180240001C024000200240002402400C
:10344000003C01400069084000D0012070474269FB
:1034500031EA020200D10904816170470AB1816139
:1034600070470904FBE700000148806870470000CE
:10347000F400002010B5040013D0242084F83D008F
:103480002068016821F001010160204600F066FA21
:103490000020206484F83D0044F8300FA0732073AE
:1034A00010BD012010BD90F83D00704770B50400BC
:1034B00025D094F83D00002520B984F83C502046E2
:1034C00000F068FA242084F83D002068016821F0AB
:1034D000010101602068016841F400410160206839
:1034E000016821F40041016001F026FA4D4A61684B
:1034F000914201D84C4900E04C49884201D2012058
:1035000070BD4B492368B0FBF1F15E6826F03F06C1
:103510000E435E606368934206D94FF49673594335
:103520004FF47A73B1FBF3F12368491C1E6A26F04D
:103530003F06314319626168914210D84900401E2C
:10354000B0FBF1F2521CC2F30B02042A01D2042098
:1035500022E0B0FBF1F0401CC0F30B001CE0A268BD
:10356000F2B301EBC10303EB0116431EB3FBF6F309
:103570005B1C43F480431B0549D092B301EBC102AD
:1035800002EB0111401EB0FBF1F0401CC0F30B0038
:1035900040F4804040F400402168CA694CF6FF7353
:1035A0009A431043C861D4E90710014320680268B8
:1035B00022F0C00211430160D4E9030101432068F5
:1035C000826848F2FF339A4311438160D4E90501D0
:1035D00008432168CA6822F0FF021043C86001E076
:1035E0000EE016E02068016841F0010101602564E9
:1035F000202084F83D00256384F83E50002070BDF3
:1036000001EB4106431EB3FBF6F35B1CB3E701205D
:10361000C2E701EB4101401EB0FBF1F0401CC0F3DA
:103620000B00B7E7A086010080841E0000093D0062
:1036300040420F002DE9FF4F83B09A46DDE9119714
:1036400093460446DDF84080FFF70EFF054694F8E8
:103650003D00202870D11923012271492046009590
:1036600001F070FE0028F5D194F83C00012863D0E9
:10367000012084F83C0020680168C90703D1016873
:1036800041F0010101602068016821F400610160DE
:10369000222084F83D00402084F83E000026266465
:1036A000C4F82480A4F82A90608D20855D48E062EB
:1036B000CDE9007553465A462046049901F04AFD6B
:1036C00000287CD1208DD0B1012821D0022820688B
:1036D00024D0416980690090208D032869D8012891
:1036E0002BD0514902283B464FF00002009559D09B
:1036F0008846204601F026FE002860D13CE0206884
:10370000416981690091016841F40071016077E0CD
:103710002068016821F480610160F0E7016821F40C
:10372000806101602068016841F4006101602068E7
:1037300041698069009063E06FE02A46394620467F
:1037400001F07FFE98BB20680069616A08704EE056
:103750002068016841F40071016020680069616AB5
:103760000870606A401C6062218D491E2185618D50
:10377000491E6185216838E02068016821F4806174
:10378000016020680069616A0870606A401C6062BC
:10379000208D401E2085608D401E60853B460022A6
:1037A00041460095204601F0CDFD00B9D0E706E086
:1037B000FFE72A463946204601F043FE18B10120B2
:1037C00007B0BDE8F08F20680069616A0870606A20
:1037D000401C6062218D491E2185618D491E6185D5
:1037E00021684A69D24352070AD409690170606AA4
:1037F000401C6062208D401E2085608D401E6085CB
:10380000208D00287FF468AF202084F83D0084F8E4
:103810003E6084F83C600020D2E70220D0E7000040
:10382000020010000000FFFF040001002DE9FF4F1F
:1038300083B09A46DDE9119793460446DDF840804F
:10384000FFF712FE054694F83D0020287FD119238A
:10385000012240492046009501F074FD002876D1F0
:1038600094F83C00012872D0012084F83C002068C4
:103870000168C90703D1016841F0010101602068B6
:10388000016821F400610160212084F83D0040209E
:1038900084F83E0000262664C4F82480A4F82A9008
:1038A000608D20852C48E062CDE9007553465A466C
:1038B0002046049901F0CCFC70B930E02A46394624
:1038C000204601F0F1FD58B1206C042804D1206895
:1038D000016841F400710160012007B0BDE8F08F7C
:1038E000606A216800780861606A401C6062218D0E
:1038F000491E89B22185628D521E628522685369F4
:10390000DB435B070BD469B100781061606A401C2F
:103910006062208D401E2085608D401E6085208D58
:103920000028CBD12A463946204601F0E5FC002884
:10393000CAD154F83D0B016841F4007101602020A8
:1039400004F81E09E67766770020C6E7FFE7022045
:10395000C3E70000020010000000FFFF10B5006880
:10396000094988420FD10948016821F4001101601A
:10397000074C81152046FFF7B5FB61152046BDE8D1
:103980001040FFF7AFBB10BD00540040403802406C
:103990000004024010B586B0044614216846FCF7C6
:1039A000D5FC1A49206888422ED11948016841F097
:1039B000020101600068694600F0020005904FF4C2
:1039C000407000901220019001200290032003908B
:1039D000042004900F48FFF74BFC0D48103001689D
:1039E00041F400110160006800F4001005900848DF
:1039F0001038016841F400110160016821F40011E0
:103A000001606420FFF7E2FA06B010BD00540040E8
:103A100030380240000402400248816802781144B4
:103A200081607047F40000200B4810B5016841F434
:103A300000710160016841F480610160016841F436
:103A400080710160032000F03DFA002000F006F8CC
:103A500000F0DEF9002010BD003C024010B5014628
:103A600088B00022362000F00DFA362000F0FDF973
:103A700013480024016841F010010160006805A9A5
:103A800000F010000690684600F036FF00F054FF8A
:103A90000C494000B0FBF1F10C480B4A491E026092
:103AA00040F2E732C0E90324C0E9011401F0B8F99B
:103AB00010B1012008B010BD044801F0CDF9F9E7BC
:103AC0004038024040420F0000100040F01B002030
:103AD0004A6A0AB14FF00052C2600A6AFAB1002283
:103AE0008260CA69F2B1002242604A6B521E826152
:103AF000D1E90D231A44521E0262D1E90D23134469
:103B00000A6C521E1A448262D1E90D231A440B6CCE
:103B1000C96B19441144491E0163002070474FF0DE
:103B20008042DDE74FF00042DEE72DE9F041044638
:103B300090F8A00016460F4601281DD0012584F8F4
:103B4000A050022084F8A10006EB860000EBC6001E
:103B500004EB800034223830FCF7DFFB3246394674
:103B6000204601F037FD2068456284F8A15000200E
:103B700084F8A000BDE8F0810220FBE770472DE942
:103B8000F04104460068856B466B69074FF00408F6
:103B90004FF0000715D5710713D5416B21F00401D3
:103BA00041632168C1F83C80D4F8A41041F00101C0
:103BB000C4F8A41084F8A18084F8A0702046FFF710
:103BC000DDFFA80716D5B00714D52068416B21F09A
:103BD0000201416321680220C863D4F8A40040F0C8
:103BE0000200C4F8A40084F8A18084F8A0702046E4
:103BF000FFF7C4FF05EA0600C0074FF001080ED02A
:103C00002068416B21F0010141632168C1F83C80CB
:103C100084F8A18084F8A070204600F08FF828076F
:103C200010D530070ED52068416B21F008014163A3
:103C300021680820C86384F8A18084F8A070204619
:103C400000F09CF8BDE8F08170B5040004D094F851
:103C5000A100002510B106E0012070BD84F8A0503D
:103C6000204600F06DF8022084F8A10020688169E8
:103C700021F070418161D4E901010843D4E90312C4
:103C80001143084321688A691043886121688A6862
:103C9000294802408A60A18A0A0421688B68A669C3
:103CA000334313438B602168CA680240CA60A18B0A
:103CB0000B042168CA68266A32431A43CA60216825
:103CC0000A6902400A61A18C22680B041169A66A84
:103CD00031431943116121684A6902404A61A08D4C
:103CE000010420684269236B1A430A43426194F835
:103CF00035002168020294F83600CB6A03F07F4356
:103D0000CB622168CB6A94F8346042EA00403343C6
:103D10000343CB622068416B41F006014163206898
:103D2000816941F001018161C4F8A450012084F847
:103D3000A100002070BD000000F800F070470000F6
:103D400008B500680B49884212D10B48016841F060
:103D5000806101600068002200F080600090052111
:103D6000582000F08FF8BDE80840582000F07DB8DA
:103D700008BD000000680140443802407047000060
:103D800070B590F8A030012B36D0012480F8A04007
:103D9000022380F8A13002EB820303EBC20300EBA5
:103DA00083039B6C53B3012B2AD0042B2AD0022B04
:103DB00028D0032B26D0072B24D0012359430B04F2
:103DC000B021056801EBC2116A580F4E32406A50AB
:103DD0000E4A156845F00105156005686E581E43CA
:103DE0006E50116841F00101116080F8A14000217E
:103DF00080F8A010084670BD022070BD0423DDE7E6
:103E00000323DBE70223D9E7FFFF00E0246801403A
:103E10000C4882B0016841F480410160006800F400
:103E2000804000900748001F016841F08051016008
:103E30000068002200F0805000900F21901E02B018
:103E400000F020B84438024000280DDB00F01F02CB
:103E5000012191404009800000F1E020C0F880116C
:103E6000BFF34F8FBFF36F8F7047002809DB00F05F
:103E70001F02012191404009800000F1E020C0F8BC
:103E800000117047F0B40E4B1B680C46C3F30223BD
:103E9000C3F10705042D00D90425191D072901D2F6
:103EA000002300E0DB1E012606FA05F1491E214031
:103EB00099409E40761E16403143F0BC06F062BE2B
:103EC0000CED00E0064900F0070208684FF6FF031A
:103ED000184040EA0220034A10430860704700007F
:103EE0000CED00E00000FA052DE9F84317480168E1
:103EF00041F0805101600068154F00F080500126AC
:103F000000903E64FFF7B0FA05464FF47A78114C02
:103F100005E000BFFFF7A8FA401B40450DD86068D8
:103F2000C003F7D57E64FFF79FFA0546464607E0D3
:103F3000FFF79AFA401BB04202D90320BDE8F8838C
:103F400060688003F4D50020F8E7000040380240A4
:103F500000000E4200700040F8B504460025FFF74F
:103F600083FA064694F84100800736D5002084F88D
:103F700040002068016849070BD5016821F0040161
:103F80000160E06BFEF7E6F818B1606C40F00400E9
:103F900060642068016841F002010160A06C00903B
:103FA000334601220221204602F0B4F9050014D163
:103FB00021680220C860A06C0090334600222021B6
:103FC000204602F0A7F9050007D12068416921F0D9
:103FD00040614161012084F841002846F8BD00009D
:103FE0002DE9F84F1E4615468A460446FFF73CFA6F
:103FF000814694F8400001280ED0012784F84070D3
:1040000094F841004FF00008012807D05FF002004B
:1040100084F84080BDE8F88F0220FBE7C4F84480B4
:10402000422084F841004B46002220212046009681
:1040300002F070F90028EBD12168286888622168B5
:10404000686848622168A868C862206829690268AF
:1040500022F4400242F4800211430160E968CAF888
:1040600028104FF000625146204602F035F84B46CA
:10407000012208212046009602F04CF90028C7D101
:1040800022680821D16084F84170C1E72DE9F84F1A
:1040900017468B460446FFF7E7F9824694F840003E
:1040A00001280ED0012684F8406094F841004FF0BA
:1040B0000008012807D0022584F840802846BDE882
:1040C000F88F0220FBE7C4F844804FF0020984F81F
:1040D00041905346002220212046009702F01AF911
:1040E0000500E9D100225946204601F0F5FFDBF832
:1040F000240058B95346012202212046009702F0BD
:1041000009F90500D8D12168C1F80C9084F8416004
:10411000D2E710B504000ED02068016821F001013B
:104120000160204600F0A4F80020606484F841009B
:1041300084F8400010BD012010BD0000F8B5044611
:10414000FFF792F9064624B194F84100002510B11A
:1041500009E00120F8BD84F84050204600F0A6F8A0
:1041600041F28830A06420680168A2686FF0FF0304
:1041700021F4F85103EB022211430160A06C00907E
:10418000334600222021204602F0C4F810BBE26929
:10419000E16823791143226A42EA036211432268EB
:1041A00013680E4E334019431160D4E905121143D0
:1041B000226853680A4E3340268A43EA064319436D
:1041C000516021680A6842F001020A6065640121B9
:1041D00084F8411084F84050F8BD00002FFFFF0024
:1041E000FEF8E0FF2DE9F843164688460446FFF73F
:1041F0003BF9034694F8400001280ED0012084F8D2
:10420000400094F841000027012808D05FF0020523
:1042100084F840702846BDE8F8830220FBE7676415
:10422000822084F84100A06C0090002220212046CA
:1042300002F070F80500EBD120680168726821F087
:10424000080111430160706808280AD121683068AC
:10425000086321681020C8602068016841F480115B
:1042600001604FF040624146204601F035FFCFE744
:1042700010B50068094988420FD10948016821F04A
:104280000201016040210748FEF72CFFBDE8104005
:104290004FF4F8610448FEF725BF10BD001000A0E0
:1042A0003838024000040240001402402DE9F04179
:1042B00086B0044614216846FCF748F82349206874
:1042C000884240D122480024016841F00201016087
:1042D000006800F0020005901D480838016841F0B0
:1042E00002010160016801F002010591016841F0DD
:1042F000200101600068022500F0200005904020A8
:10430000CDE9000502AA03260A2782E8D000694603
:104310001048FEF7ADFF4FF49860CDE90005029418
:104320000920CDE90360DFF8308069464046FEF79A
:104330009FFF3002CDE9000502AA694682E8D0005D
:104340004046FEF795FF06B0BDE8F081001000A0E2
:104350003838024000040240001402402DE9F84FB2
:1043600015460F460446FFF77FF8824620688169AC
:1043700094F8402000F12009012A0DD0012684F88C
:10438000406094F841204FF00008012A06D0022036
:1043900084F84080BDE8F88F0220FBE7C4F8448031
:1043A000BFB3222284F841200269521CA263026931
:1043B000521C62632763426922F0406242F08062CD
:1043C0004261206881610EE00621204601F0A2FFD3
:1043D000E0B999F80000216B0870206B401C206345
:1043E000A06B401EA063A06B53464FF001020095E6
:1043F0000028E9D14FF00201204601F08BFF28B9D7
:1044000021680220C8602046FFF7A6FD84F84160BD
:10441000BEE7FFE7606C40F0080060640120B7E78A
:104420002DE9F84F15460F460446FFF71DF8824662
:10443000206894F8401000F1200901290ED00126CF
:1044400084F8406094F841104FF00008012907D02B
:104450005FF0020084F84080BDE8F88F0220FBE79F
:10446000C4F844809FB3122184F841100169491CAB
:10447000E1620169491CA1626762416921F0406102
:1044800041610EE00421204601F044FFE0B9606A7A
:10449000017889F80010606A401C6062E06A401E82
:1044A000E062E06A53464FF0010200950028E9D12E
:1044B0004FF00201204601F02DFF28B921680220AB
:1044C000C8602046FFF748FD84F84160C2E7FFE777
:1044D000606C40F0080060640120BBE72DE9F84FF4
:1044E00004460078AD4D000605D52868616B20F0C4
:1044F0000060084328602088C00505D52868A16BA6
:1045000020F08050084328602068DFF894A2A54F6F
:10451000C1074FF001084FF0000603D1810701D415
:10452000400648D5CAF86860FEF79EFF814605E060
:10453000FEF79AFFA0EB090002287DD83868000139
:10454000F6D42078C107984805D06168227A89019D
:1045500041EA027101602178890711D5016862681A
:10456000237B9201C1F3027142EA036242EA0171C4
:1045700001602968226A21F01F01521E114329603F
:104580002178490608D56168227B890141EA0261E8
:10459000227A41EA02710160CAF86880FEF764FF7E
:1045A000814605E0FEF760FFA0EB09000228C4D8B1
:1045B00038680001F6D520684FF0006B410706D43B
:1045C000010704D4000676D5606B58457DD1CAF842
:1045D0007060FEF749FF814606E000BFFEF744FF2A
:1045E000A0EB0900022827D83868C0438000F5D521
:1045F00020786F4942076D4821D502680368C2F3ED
:104600000142521C22F00042D4F810C001EB0242D9
:1046100042EA8C1294F818C0C3F3027342EA0C62A7
:1046200042EA037202602A68636A6FF0FF0C22F4A8
:10463000F8520CEB032300E087E01A432A6022784B
:1046400012071AD50268C2F30142521C53000268D5
:104650005B08D4F810C001EB0343C2F3036243EAE2
:104660008C1343EA0262237F42EA037202602A68E3
:10467000A36A22F440321A432A602278120614D523
:10468000626B5A4511D102680368C2F3036265691F
:10469000C3F302736D0801EB0541256941EA8511F9
:1046A00041EA026141EA03710160CAF87080FEF7D5
:1046B000DBFE054605E008E0FEF7D6FE401B0228BB
:1046C00043D83868C0438000F6D42078800653D59C
:1046D00034484030016841F0805101600068354D38
:1046E00000F080500090286840F480702860FEF749
:1046F000BBFE074605E000BFFEF7B6FEC01B022862
:1047000023D82868C005F7D5274D143D286810F434
:10471000407020D0A18D01F4407181421BD02868E7
:10472000254920F44070C1F800800E602860286898
:10473000C00710D0FEF798FE064641F2883707E022
:10474000FEF792FE801BB84202D90320BDE8F88F25
:1047500028688007F4D5E16A1248C1F301220830C5
:10476000032A13D0016821F4F81101602868A18D93
:10477000C1F30B01084328602078C00604D50F4917
:1047800094F83000C1F8E0010020DFE702680C4B2C
:1047900022F4F81219400A430260E7E78C3802401D
:1047A0000000474200380240843802408838024006
:1047B0000000FFFF00700040400E474200104742DB
:1047C000FFFCFF0F2DE9F0470E46050065D0DFF82E
:1047D0001481D8F80000F7B200F00F00B04207D201
:1047E00088F80070D8F8000000F00F00B04254D1F3
:1047F00028683D4C810712D5400703D5206840F456
:10480000E05020602878000703D5206840F460401D
:1048100020602068A96820F0F00008432060287814
:10482000C0072DD0304968680839012812D0022805
:1048300013D0032811D00968890700292DDA2168CF
:1048400021F0030101432160FEF70EFE814641F293
:10485000883A0EE009688903EFE709688901ECE707
:10486000FEF702FEA0EB0901514502D90320BDE885
:10487000F0872068696800F00C00B0EB810FEFD181
:10488000D8F80010404601F00F01B14207D9077077
:10489000006800F00F00B04201D00120E7E728785F
:1048A000400705D52068E96820F4E05008432060FF
:1048B0002878000706D52068296920F4604040EA7E
:1048C000C100206000F048F82168084AC1F30311D4
:1048D000515CC8400649086006480068FFF7BEF80A
:1048E0000020C4E7003C024008380240C23A0108F8
:1048F00000010020F80000200F2202600C4A13681B
:1049000003F003034360136803F0F003836013684C
:1049100003F4E053C36012684FF4E05303EAD20299
:1049200002610448006800F00F0008607047000052
:1049300008380240003C0240044805490068096804
:10494000044AC1F38221515CC84070470001002035
:1049500008380240D23A0108154810B5006810F036
:104960000C02144813D04110042A0FD0082A0ED18B
:104970000F4C241F2268236802F03F025B0207D518
:104980002068C0F38810A0FB010106E0084610BDB6
:104990002168C1F38811A1FB00010023FBF78CFC07
:1049A0002168C1F30141491C4900B0FBF1F010BD81
:1049B000083802400024F4002DE9F84F054600783D
:1049C000DFF800B3C04CC0074AD0DBF800105846EF
:1049D000C1F38101012908D00068C0F381000228D9
:1049E0000AD1201D0068400206D52068800337D513
:1049F0006868002872D033E06868B0F5803F10D056
:104A0000B0F5A02F206810D020F4803020602068FE
:104A100020F4802020606868A8B1FEF725FD0646D6
:104A20000DE0206840F48030F4E740F480202060FE
:104A3000F7E700BFFEF718FD801B64286FD82068D9
:104A40008003F7D50CE0FEF70FFD064605E000BF3A
:104A5000FEF70AFD801B6428F0D820688003F7D495
:104A60002878DFF8688280074FF0000940D5DBF82E
:104A70000010584611F00C0F09D00068C0F38100F7
:104A800002280BD18F48001F0068400206D420681E
:104A9000800715D5E868012820D111E0E868B8B191
:104AA0000120C8F80000FEF7DFFC064605E000BF65
:104AB000FEF7DAFC801B0228C0D820688007F7D5F3
:104AC0002068296920F0F80040EAC10020600FE06A
:104AD000C8F80090FEF7C8FC064606E0EFE000BF0D
:104AE000FEF7C2FC801B022819D820688007F7D483
:104AF0002878000722D5734E754869696C3679B1FC
:104B000001210160FEF7B0FC074604E0FEF7ACFCB3
:104B1000C01B022803D830688007F7D50EE089E073
:104B2000C0F80090FEF7A0FC074604E0FEF79CFCEE
:104B3000C01B02287ED830688007F7D42878400749
:104B400068D5DFF880A100270AF1380ADAF80000FA
:104B5000C0000BD4DAF8001041F08051CAF8001000
:104B6000DAF80000012700F080500090594E3068BC
:104B7000C00510D4306840F480703060FEF774FCDB
:104B8000009005E0FEF770FC0099401A022851D809
:104B90003068C005F6D54B4EA868683601280FD09E
:104BA0000528306810D020F001003060306820F017
:104BB00004003060A868B8B1FEF756FC00900FE022
:104BC000306840F00100F4E740F004003060F7E79F
:104BD000FEF74AFC0099411A41F28830814266D8BA
:104BE00030688007F4D50EE0FEF73EFC009007E049
:104BF000FEF73AFC0099411A41F28830814256D8BA
:104C000030688007F4D42FB1DAF8001021F0805119
:104C1000CAF80010A869D0B3DBF80010C1F3810115
:104C200002294CD00228484607D0C8F86000FEF799
:104C30001BFC00E03BE005463CE04746C8F860004E
:104C4000FEF712FC064604E0FEF70EFC801B02286D
:104C50002DD820688001F7D4F5E907010843E968F9
:104C60001D4A490802EB0141AA6841EA8211084342
:104C7000297C40EA0160297D40EA01711148001F4A
:104C8000016001203866FEF7EFFB054605E014E001
:104C9000FEF7EAFB401B022809D820688001F7D5FF
:104CA0000BE000BFFEF7E0FB401B022802D9032007
:104CB000BDE8F88F20688001F4D40020F8E70120D7
:104CC000F6E7000008380240003802400000474282
:104CD000800E4742007000400000FFFF10B5044600
:104CE00000F02CF8D4E90001FCF79AFF002084F8CA
:104CF0002C0084F82D0010BD70B50D46040003D0C3
:104D000094F82C0010B107E0012070BD002084F859
:104D10002D00204600F056F8022084F82C00211DBA
:104D20002068FCF78CFFD4E900022946FCF7DAFF83
:104D3000012084F82C00002070BD0000184810B538
:104D4000416800292AD1012141601648016821F0FB
:104D5000010101604FF683711348FEF7C3F948F271
:104D600033111248FEF7BEF94CF203711048FEF7FA
:104D7000B9F940F2FF610F48FEF7B4F94FF63F0171
:104D80000D48FEF7AFF94FF47F410C48FEF7AAF942
:104D9000BDE810400D210A48FEF7A4B910BD00007F
:104DA000580000203838024000100240001802402D
:104DB000000C02400020024000140240001C02408F
:104DC00000080240FEF714B910B5044690F82C0014
:104DD000022809D0022084F82C002068FCF757FF35
:104DE000012084F82C00002010BD000070B504469E
:104DF00090F82C000D4602280DD0022084F82C00DB
:104E00002068FCF74AFF2868022805D05FF00100FF
:104E100084F82C00002070BD0520F9E7704770472A
:104E200010B5040003D094F83D0010B107E0012054
:104E300010BD002084F83C00204600F00CF8022051
:104E400084F83D00211D206801F04EFB012084F80C
:104E50003D00002010BD70470168CA6842F00102A1
:104E6000CA600068816801F00701062903D0016863
:104E700041F00101016000207047704770B50446A1
:104E8000006801694FF00005C943890715D4C1685E
:104E9000C943890711D4E91E0161012020772068E8
:104EA00080698007204602D0FFF7E7FF04E000F0AA
:104EB00098F8204600F096F8257720680169C943E4
:104EC000490717D4C168C943490713D46FF00401D7
:104ED0000161022020772068806910F4407F20461D
:104EE00002D0FFF7CAFF04E000F07BF8204600F094
:104EF00079F8257720680169C943090716D4C16884
:104F0000C943090712D46FF008010161042020771A
:104F10002068C0698007204602D0FFF7AEFF04E09A
:104F200000F05FF8204600F05DF825772068016901
:104F3000C943C90617D4C168C943C90613D46FF061
:104F400010010161082020772068C06910F4407FBB
:104F5000204602D0FFF791FF04E000F042F820461F
:104F600000F040F8257720680169C943C90708D1D6
:104F7000C168C943C90704D1891E0161204600F0F8
:104F800033F820680169C943090609D4C168C943D7
:104F9000090605D46FF0800101612046FFF73EFF4E
:104FA00020680169C943490609D4C168C943490653
:104FB00005D46FF040010161204600F01FF8206821
:104FC0000169C94389060BD4C168C943890607D45E
:104FD0006FF0200101612046BDE87040FFF71FBF60
:104FE00070BD70477047000000680349884201D1D6
:104FF000FEF712BD70470000001000407047FEE74A
:1050000010B50348FEF736FABDE8104000F002B8CC
:10501000301C002010B50E48FEF745FA002815D1C7
:105020000B480C494FF4804201600B49416000215C
:105030008160C0E9031241618161C161016200F0D8
:105040000DF8BDE810400248FEF730BA10BD000070
:10505000301C002000540040801A0600234810B580
:10506000026886B0002142F0020202600068204C13
:1050700000F0020005904FF4807000901220CDE9FE
:105080000101022003900420049069462046FEF7A7
:10509000EFF86015009069462046FEF7E9F81348DE
:1050A0001030016841F400110160006800F4001044
:1050B00005900E481038016841F400110160016844
:1050C00021F400110160002205211F20FEF7DAFE05
:1050D0001F20FEF7CAFE002205212020FEF7D2FE87
:1050E0002020FEF7C2FE06B010BD0000303802409E
:1050F000000402403EB5054606984FF47A74CDE9A7
:10510000003013460A46029429460548FEF792FAF3
:10511000040002D02846FFF773FF20463EBD000082
:10512000301C002001684A69D24352050FD46FF445
:1051300080624A61002140F8301F2022427381734F
:10514000026942F0040202610173012070470020ED
:10515000704700002DE9F84F0446006889460B9D12
:1051600001689846174641F4806101602068016833
:1051700041F48071016000954FF0011B00225946F7
:1051800020460A9B00F0DEF84FF4007A40B1206818
:105190000068C00501D5C4F840A00320BDE8F88F21
:1051A000216809F0FE0008612B46284920460A9A2A
:1051B00000F0FCF8F0BB20684169806900902A4645
:1051C00020460A9900F070F940B1206C04283AD1C9
:1051D0002068016841F40071016034E0FEB2B8F16A
:1051E000010F09D02168380A08612A4620460A9929
:1051F00000F05AF90028E8D1206806612A462046C6
:105200000A9900F051F90028DFD12068016841F4C3
:105210008071016000950022594620460A9B00F0EB
:1052200091F80028B3D1216809F0FF0040F0010097
:10523000086100E007E02B46044920460A9A00F086
:10524000B5F80028AAD00120A8E70000020001005C
:105250002DE9F843044600680D46DDE9089701682A
:105260009846164641F4807101604B4600224FF08B
:1052700001112046009700F065F848B120680068E9
:10528000C00502D54FF4007020640320BDE8F88308
:10529000216805F0FE0008613B464A461549204654
:1052A00000F084F888B920684169806900903A4626
:1052B0004946204600F0F8F848B1206C042804D193
:1052C0002068016841F4007101600120DEE7F5B259
:1052D000B8F1010F09D02168300A08613A46494601
:1052E000204600F0E1F80028E7D1206805610020A1
:1052F000CCE700000200010070B516460D460446DA
:105300000DE02046FFF70EFF08B1012070BD681CBC
:1053100005D0FEF7A9F8801BA84207D835B1206850
:105320004069C0434007ECD4002070BD002044F821
:10533000300F20216173A073216941F020012161A8
:105340002073E2E72DE9F0471E4690460D460446DD
:10535000C1F30747DDF8209008E0701C06D0FEF787
:1053600083F8A0EB0900B0420FD876B12068012F76
:1053700018D0806925EA00000004000C14D0002138
:105380004145EAD00020BDE8F087002044F8300F06
:1053900020216173A073216941F0200121612073F4
:1053A0000120F0E74069E5E70121E9E72DE9F04751
:1053B0009A4691460E46044600254FF02008C1F358
:1053C000074725E020684069C043400514D42068A1
:1053D000016841F40071016021686FF480604861E8
:1053E000256384F83D8084F83E50206C40F0040032
:1053F000206484F83C501FE0B9F1FF3F08D0FEF76D
:1054000033F8A0EB0A0149450CD8B9F1000F09D0D7
:105410002068012F13D0806926EA00000004000CE8
:105420000BD0CFE744F8305F84F80D80A573206976
:1054300040F02000206125730120BDE8F08740691D
:10544000EAE72DE9F041002590460E460446202764
:1054500017E04069C043C0060CD454F8301B6FF00D
:105460001000486144F810596777A577206A2062D8
:10547000257717E0FDF7F8FFA0EB0800B04208D849
:105480003EB120684169C9434906E2D40020BDE825
:10549000F08144F8305F6773A573206940F0200005
:1054A000206125730120F2E770B516460D460446CB
:1054B0000DE02046FFF736FE08B1012070BD681CE4
:1054C00005D0FDF7D1FF801BA84207D835B1206871
:1054D0004069C0430006ECD4002070BD002044F8B1
:1054E000300F20216173A073216941F020012161F7
:1054F0002073E2E70100044810B5006800D00121E4
:1055000003F02AFA012010BDAC0C00201CB50B489A
:10551000022102230170152141704421CDE90010C0
:10552000392200210648FDF7FBFB002001460090D0
:10553000352315220248FDF7EAFC1CBD06000020B9
:10554000581A00201CB50649042301EB80002A21CB
:10555000CDE90010392200210248FDF7E1FB1CBD16
:105560001C000020581A00202DE9F8430E4607467B
:10557000DDE90818124815464FF440324260002217
:10558000C0E902210F491C460160FCF7F4FC002829
:1055900014D139460A48FCF70DFC00280ED12B46E1
:1055A0003246414606480094FCF7BAFD002805D172
:1055B000BDE8F8430A210248FCF72ABDBDE8F8839C
:1055C000EC1E002000B002400148FEF7D8BA0000EF
:1055D000C81A0020F0B503688C88DD68C5F30B4558
:1055E0002C442504882404EBC2141E5906F470468A
:1055F0001E5103680F68DE68C6F30B46761C3E44F6
:105600002E431E5104688B89E568C5F30A052B44B7
:105610001D048C2303EBC213E65806F47046E650D3
:1056200004688F68E668C6F30A06761C3E442E437B
:10563000E6509423046803EBC213E55825F00705F0
:10564000E55005680C69EC5091F831300C7E1F0272
:1056500026069C24056804EBC21491F8323055F8F4
:1056600004C04FF0000C45F804C091F8305046EAF1
:1056700003433D431D4303681D519823046803EB16
:10568000C213E55825F0FF05E55005684C69EC505C
:10569000A023046803EBC213E55840F20776B54334
:1056A000E550D1E907452C430568EC50AC2304686C
:1056B00003EBC213E55844F803C005684C6AEC508C
:1056C0000B698BB3012B32D0042B32D0022B30D09C
:1056D000032B2ED0072B2CD00123B024056804EB1C
:1056E000C2142E5906F0E0262E51D1E90065AD1BFB
:1056F0000E8D5D435E43ED1C45EA064305682B5164
:10570000B423046803EBC213E5586FF30A05E550B0
:105710000468C96AE1500068842101EBC211425853
:1057200042F001024250F0BDFFE70423D5E7032316
:10573000D3E70223D1E70000F0B5474CABB000221D
:1057400080212046FDF78AFE1420FDF73FFC012250
:1057500080212046FDF782FE0A20FDF737FC002459
:10576000242118A82994FAF7F1FD182121A8FAF7A5
:10577000EDFD34216846FAF7E9FD2C210DA8FAF772
:10578000E5FD3748354901250426C56080E852000B
:105790007D200227CDE9270727A93148FDF706FA22
:1057A000CDE918541A941B941C941D941E941F94B4
:1057B00018A92B482094FCF7E7FE1C2021902120FB
:1057C00022900F2023901920CDE9240421A92448F8
:1057D0002694FCF74AFF04212148FCF7C1FE42F25F
:1057E00010711F48FDF77AFB00211D48FCF754FE9D
:1057F0002802009040000190400002904000039079
:105800004000049040000590400006908000079002
:10581000400008904000099040000A904001CDE906
:105820000B0769460E48FCF7FFFDC820CDE90E4086
:1058300010A90D94102081E8D10014940DA90848F6
:105840001594CDE91645FCF767FD00210448FDF7E6
:1058500031FB2BB0F0BD0000001C0240006C014089
:10586000581A002000B587B01C216846FAF76EFD73
:105870001548144900F1080C01600021042220237E
:1058800041608CE80E00402343614FF4C073C0E9CF
:105890000631016291024162890081620220072182
:1058A0008DE8070003910321CDE9041006906946B5
:1058B0000548FFF721FAFBF781FDFBF797FD07B0DD
:1058C00000BD0000400100A0BC1B00202DE9F047F6
:1058D00086B014216846FAF739FD4C480024016867
:1058E00041F010010160016801F0100105910168AB
:1058F00041F002010160016801F0020105910168B7
:1059000041F040010160016801F04001059101682A
:1059100041F008010160016801F00801059101688A
:1059200041F480710160016801F4807105910168A2
:1059300041F020010160016801F02001059101683A
:1059400041F480610160016801F4806105910168A2
:1059500041F080010160016801F08001059101685A
:1059600041F004010160016801F004010591016842
:1059700041F4007101600068254E00F4007005904C
:10598000012208213046FDF769FDDFF888800022FA
:1059900010214046FDF762FDDFF87C900022402197
:1059A0004846FDF75BFDDFF874A0002280215046D9
:1059B000FDF754FD082000901125CDE901546946FA
:1059C00030460394FDF754FC102001260227CDE950
:1059D0000006CDE9024769464046FDF749FC4020F4
:1059E000CDE90006CDE9024769464846FDF740FC8F
:1059F0008020CDE900050320CDE9024069465046EC
:105A0000FDF736FC06B0BDE8F087000030380240F4
:105A100000280240000C024000180240001C024016
:105A20000C4810B50A4901600B49416000214FF450
:105A300080428160C0E9031241618161C1610162FC
:105A4000FDF734FDBDE810400248FDF713BD00002E
:105A500000540040741A0020801A060070B59CB0F3
:105A6000342101A8FAF772FC394D38480024C5E901
:105A70000004AC600120EC60C5E904400226C5E9E1
:105A80000606CA20C5E908604FF4F170A862CB2071
:105A9000E86240F2E310286385F8344085F8354029
:105AA00085F836402846FEF7CFF8C820CDE90140FA
:105AB0004FF4F0710596CDE90341FF22CDE90624AC
:105AC00072020892052209924A060A92CDE90B0158
:105AD0008DF834408DF835408DF83640002201A90C
